{
  "address": "0x5FC8d32690cc91D4c39d9d3abcBD16989F875707",
  "abi": [
    {
      "inputs": [
        {
          "internalType": "address",
          "name": "_token",
          "type": "address"
        }
      ],
      "stateMutability": "nonpayable",
      "type": "constructor"
    },
    {
      "anonymous": false,
      "inputs": [
        {
          "indexed": true,
          "internalType": "address",
          "name": "user",
          "type": "address"
        },
        {
          "indexed": false,
          "internalType": "uint256",
          "name": "taskIndex",
          "type": "uint256"
        }
      ],
      "name": "TaskAchieved",
      "type": "event"
    },
    {
      "anonymous": false,
      "inputs": [
        {
          "indexed": true,
          "internalType": "address",
          "name": "user",
          "type": "address"
        },
        {
          "indexed": false,
          "internalType": "string",
          "name": "description",
          "type": "string"
        },
        {
          "indexed": false,
          "internalType": "enum PowDoneGoal.VerificationMethod",
          "name": "verificationMethod",
          "type": "uint8"
        },
        {
          "indexed": false,
          "internalType": "bytes",
          "name": "verificationMaterial",
          "type": "bytes"
        },
        {
          "indexed": false,
          "internalType": "address",
          "name": "burntPKPAddress",
          "type": "address"
        },
        {
          "indexed": false,
          "internalType": "uint256",
          "name": "stake",
          "type": "uint256"
        },
        {
          "indexed": false,
          "internalType": "uint256",
          "name": "deadline",
          "type": "uint256"
        }
      ],
      "name": "TaskSet",
      "type": "event"
    },
    {
      "anonymous": false,
      "inputs": [
        {
          "indexed": true,
          "internalType": "address",
          "name": "user",
          "type": "address"
        },
        {
          "indexed": false,
          "internalType": "bool",
          "name": "success",
          "type": "bool"
        }
      ],
      "name": "TaskVerified",
      "type": "event"
    },
    {
      "inputs": [],
      "name": "assertionId",
      "outputs": [
        {
          "internalType": "bytes32",
          "name": "",
          "type": "bytes32"
        }
      ],
      "stateMutability": "view",
      "type": "function"
    },
    {
      "inputs": [
        {
          "internalType": "uint256",
          "name": "amount",
          "type": "uint256"
        },
        {
          "internalType": "uint256",
          "name": "taskIndex",
          "type": "uint256"
        }
      ],
      "name": "depositStake",
      "outputs": [],
      "stateMutability": "nonpayable",
      "type": "function"
    },
    {
      "inputs": [
        {
          "internalType": "uint256",
          "name": "taskIndex",
          "type": "uint256"
        }
      ],
      "name": "distributeStakeAfterDeadline",
      "outputs": [],
      "stateMutability": "nonpayable",
      "type": "function"
    },
    {
      "inputs": [
        {
          "internalType": "address",
          "name": "user",
          "type": "address"
        }
      ],
      "name": "getTasks",
      "outputs": [
        {
          "components": [
            {
              "internalType": "string",
              "name": "description",
              "type": "string"
            },
            {
              "internalType": "enum PowDoneGoal.VerificationMethod",
              "name": "verificationMethod",
              "type": "uint8"
            },
            {
              "internalType": "bytes",
              "name": "verificationMaterial",
              "type": "bytes"
            },
            {
              "internalType": "address",
              "name": "verificationAddress",
              "type": "address"
            },
            {
              "internalType": "uint256",
              "name": "stake",
              "type": "uint256"
            },
            {
              "internalType": "bool",
              "name": "achieved",
              "type": "bool"
            },
            {
              "internalType": "bool",
              "name": "verified",
              "type": "bool"
            },
            {
              "internalType": "bool",
              "name": "givenUp",
              "type": "bool"
            },
            {
              "internalType": "bytes",
              "name": "evidence",
              "type": "bytes"
            },
            {
              "internalType": "uint256",
              "name": "deadline",
              "type": "uint256"
            }
          ],
          "internalType": "struct PowDoneGoal.Task[]",
          "name": "",
          "type": "tuple[]"
        }
      ],
      "stateMutability": "view",
      "type": "function"
    },
    {
      "inputs": [
        {
          "internalType": "uint256",
          "name": "taskIndex",
          "type": "uint256"
        }
      ],
      "name": "giveUp",
      "outputs": [],
      "stateMutability": "nonpayable",
      "type": "function"
    },
    {
      "inputs": [
        {
          "internalType": "uint256",
          "name": "taskIndex",
          "type": "uint256"
        },
        {
          "internalType": "bytes",
          "name": "_evidence",
          "type": "bytes"
        }
      ],
      "name": "markDone",
      "outputs": [],
      "stateMutability": "nonpayable",
      "type": "function"
    },
    {
      "inputs": [
        {
          "internalType": "bytes32",
          "name": "_hash",
          "type": "bytes32"
        },
        {
          "internalType": "bytes",
          "name": "_signature",
          "type": "bytes"
        }
      ],
      "name": "recoverAddress",
      "outputs": [
        {
          "internalType": "address",
          "name": "",
          "type": "address"
        }
      ],
      "stateMutability": "pure",
      "type": "function"
    },
    {
      "inputs": [
        {
          "internalType": "string",
          "name": "_description",
          "type": "string"
        },
        {
          "internalType": "enum PowDoneGoal.VerificationMethod",
          "name": "_verificationMethod",
          "type": "uint8"
        },
        {
          "internalType": "bytes",
          "name": "_verificationMaterial",
          "type": "bytes"
        },
        {
          "internalType": "address",
          "name": "_verificationAddress",
          "type": "address"
        },
        {
          "internalType": "uint256",
          "name": "_stake",
          "type": "uint256"
        },
        {
          "internalType": "uint256",
          "name": "_duration",
          "type": "uint256"
        }
      ],
      "name": "setTask",
      "outputs": [],
      "stateMutability": "nonpayable",
      "type": "function"
    },
    {
      "inputs": [
        {
          "internalType": "uint256",
          "name": "_amount",
          "type": "uint256"
        }
      ],
      "name": "stakeTokens",
      "outputs": [],
      "stateMutability": "nonpayable",
      "type": "function"
    },
    {
      "inputs": [
        {
          "internalType": "uint256",
          "name": "",
          "type": "uint256"
        }
      ],
      "name": "stakers",
      "outputs": [
        {
          "internalType": "address",
          "name": "",
          "type": "address"
        }
      ],
      "stateMutability": "view",
      "type": "function"
    },
    {
      "inputs": [
        {
          "internalType": "address",
          "name": "",
          "type": "address"
        }
      ],
      "name": "stakersBalances",
      "outputs": [
        {
          "internalType": "uint256",
          "name": "",
          "type": "uint256"
        }
      ],
      "stateMutability": "view",
      "type": "function"
    },
    {
      "inputs": [
        {
          "internalType": "address",
          "name": "",
          "type": "address"
        },
        {
          "internalType": "uint256",
          "name": "",
          "type": "uint256"
        }
      ],
      "name": "tasks",
      "outputs": [
        {
          "internalType": "string",
          "name": "description",
          "type": "string"
        },
        {
          "internalType": "enum PowDoneGoal.VerificationMethod",
          "name": "verificationMethod",
          "type": "uint8"
        },
        {
          "internalType": "bytes",
          "name": "verificationMaterial",
          "type": "bytes"
        },
        {
          "internalType": "address",
          "name": "verificationAddress",
          "type": "address"
        },
        {
          "internalType": "uint256",
          "name": "stake",
          "type": "uint256"
        },
        {
          "internalType": "bool",
          "name": "achieved",
          "type": "bool"
        },
        {
          "internalType": "bool",
          "name": "verified",
          "type": "bool"
        },
        {
          "internalType": "bool",
          "name": "givenUp",
          "type": "bool"
        },
        {
          "internalType": "bytes",
          "name": "evidence",
          "type": "bytes"
        },
        {
          "internalType": "uint256",
          "name": "deadline",
          "type": "uint256"
        }
      ],
      "stateMutability": "view",
      "type": "function"
    },
    {
      "inputs": [],
      "name": "token",
      "outputs": [
        {
          "internalType": "contract IERC20",
          "name": "",
          "type": "address"
        }
      ],
      "stateMutability": "view",
      "type": "function"
    },
    {
      "inputs": [
        {
          "internalType": "uint256",
          "name": "_amount",
          "type": "uint256"
        }
      ],
      "name": "unstakeTokens",
      "outputs": [],
      "stateMutability": "nonpayable",
      "type": "function"
    },
    {
      "inputs": [
        {
          "internalType": "uint256",
          "name": "taskIndex",
          "type": "uint256"
        },
        {
          "internalType": "address",
          "name": "user",
          "type": "address"
        }
      ],
      "name": "verify",
      "outputs": [],
      "stateMutability": "nonpayable",
      "type": "function"
    },
    {
      "inputs": [
        {
          "internalType": "uint256",
          "name": "amount",
          "type": "uint256"
        },
        {
          "internalType": "uint256",
          "name": "taskIndex",
          "type": "uint256"
        }
      ],
      "name": "withdrawStake",
      "outputs": [],
      "stateMutability": "nonpayable",
      "type": "function"
    }
  ],
  "transactionHash": "0x413cb487a2c6fa1db68c26cdbb1471004898f42e585f3ef21c0ae1af33c1e2fa",
  "args": [
    "0x5FbDB2315678afecb367f032d93F642f64180aa3"
  ],
  "numDeployments": 2,
  "solcInputHash": "3a0e0d0f391ace11e264ff2f43a0c6c2",
  "bytecode": "0x6080604052600080546001600160a01b031916739923d42ef695b5dd9911d05ac944d4caca3c4eab1790553480156200003757600080fd5b5060405162002783380380620027838339810160408190526200005a9162000080565b600480546001600160a01b0319166001600160a01b0392909216919091179055620000b2565b6000602082840312156200009357600080fd5b81516001600160a01b0381168114620000ab57600080fd5b9392505050565b6126c180620000c26000396000f3fe608060405234801561001057600080fd5b50600436106101005760003560e01c8063a8ac7f6011610097578063ebfa62b911610066578063ebfa62b91461023c578063f1fdf4691461024f578063fc0c546a14610262578063fd5e6dd11461027557600080fd5b8063a8ac7f60146101be578063b3205f2e146101d1578063c655d7aa146101f1578063e7b802391461021c57600080fd5b80637149d2e4116100d35780637149d2e41461015c5780637547c7a3146101855780637ec59eef1461019857806390c41213146101ab57600080fd5b8063038f6e52146101055780630d80da741461011a57806322671fe914610136578063608e4dd014610149575b600080fd5b610118610113366004611efe565b610288565b005b61012360015481565b6040519081526020015b60405180910390f35b610118610144366004611f45565b61061c565b610118610157366004611f45565b61071f565b61016f61016a366004611f7a565b610837565b60405161012d9a99989796959493929190612022565b610118610193366004611f45565b610a60565b6101186101a63660046120b3565b610b78565b6101186101b9366004611f45565b610d0f565b6101186101cc36600461211e565b610fb2565b6101236101df3660046121dc565b60026020526000908152604090205481565b6102046101ff366004611efe565b6112fc565b6040516001600160a01b03909116815260200161012d565b61022f61022a3660046121dc565b611442565b60405161012d91906121f7565b61011861024a366004612304565b6116fa565b61011861025d3660046120b3565b611b21565b600454610204906001600160a01b031681565b610204610283366004611f45565b611db7565b3360009081526005602052604090205482106102bf5760405162461bcd60e51b81526004016102b690612330565b60405180910390fd5b3360009081526005602052604090208054839081106102e0576102e061235c565b9060005260206000209060080201600701544211156103375760405162461bcd60e51b8152602060048201526013602482015272111958591b1a5b99481a185cc81c185cdcd959606a1b60448201526064016102b6565b3360009081526005602052604090208054839081106103585761035861235c565b906000526020600020906008020160050160029054906101000a900460ff16156103bd5760405162461bcd60e51b815260206004820152601660248201527505461736b20686173206265656e20676976656e2075760541b60448201526064016102b6565b336000908152600560205260409020805460019190849081106103e2576103e261235c565b60009182526020822060089190910201600501805460ff1916921515929092179091553360009081526005602052604090208054849081106104265761042661235c565b600091825260209091206001600890920201015460ff16600381111561044e5761044e611fea565b0361049a573360009081526005602052604090208054829190849081106104775761047761235c565b9060005260206000209060080201600601908161049491906123fb565b50610563565b60013360009081526005602052604090208054849081106104bd576104bd61235c565b600091825260209091206001600890920201015460ff1660038111156104e5576104e5611fea565b0361056357600054604051630dac4ebd60e21b81526001600160a01b03909116906336b13af49061051c90849030906004016124bb565b6020604051808303816000875af115801561053b573d6000803e3d6000fd5b505050506040513d601f19601f8201168201806040525081019061055f91906124e5565b6001555b33600090815260056020526040812080546105a99190859081106105895761058961235c565b90600052602060002090600802016002016105a3906124fe565b836112fc565b90506105e1604051806040016040528060148152602001737265636f7665726420616464726573733a20257360601b81525082611de1565b60405183815233907f3a5cdc91ad973b09ba867baae3ce05204689bc0298e21be58c2fd31ed35fdba0906020015b60405180910390a2505050565b33600090815260056020526040902054811061064a5760405162461bcd60e51b81526004016102b690612330565b33600090815260056020526040902080548290811061066b5761066b61235c565b906000526020600020906008020160050160029054906101000a900460ff16156106cf5760405162461bcd60e51b815260206004820152601560248201527405461736b20616c726561647920676976656e20757605c1b60448201526064016102b6565b336000908152600560205260409020805460019190839081106106f4576106f461235c565b906000526020600020906008020160050160026101000a81548160ff02191690831515021790555050565b3360009081526002602052604090205481111561077e5760405162461bcd60e51b815260206004820152601860248201527f4e6f7420656e6f75676820746f6b656e73207374616b6564000000000000000060448201526064016102b6565b336000908152600260205260408120805483929061079d908490612555565b90915550506004805460405163a9059cbb60e01b81523392810192909252602482018390526001600160a01b03169063a9059cbb906044016020604051808303816000875af11580156107f4573d6000803e3d6000fd5b505050506040513d601f19601f820116820180604052508101906108189190612568565b6108345760405162461bcd60e51b81526004016102b69061258a565b50565b6005602052816000526040600020818154811061085357600080fd5b90600052602060002090600802016000915091505080600001805461087790612372565b80601f01602080910402602001604051908101604052809291908181526020018280546108a390612372565b80156108f05780601f106108c5576101008083540402835291602001916108f0565b820191906000526020600020905b8154815290600101906020018083116108d357829003601f168201915b5050506001840154600285018054949560ff90921694919350915061091490612372565b80601f016020809104026020016040519081016040528092919081815260200182805461094090612372565b801561098d5780601f106109625761010080835404028352916020019161098d565b820191906000526020600020905b81548152906001019060200180831161097057829003601f168201915b50505060038401546004850154600586015460068701805496976001600160a01b039094169692955060ff808316955061010083048116946201000090930416926109d790612372565b80601f0160208091040260200160405190810160405280929190818152602001828054610a0390612372565b8015610a505780601f10610a2557610100808354040283529160200191610a50565b820191906000526020600020905b815481529060010190602001808311610a3357829003601f168201915b505050505090806007015490508a565b600480546040516323b872dd60e01b81523392810192909252306024830152604482018390526001600160a01b0316906323b872dd906064016020604051808303816000875af1158015610ab8573d6000803e3d6000fd5b505050506040513d601f19601f82011682018060405250810190610adc9190612568565b610af85760405162461bcd60e51b81526004016102b69061258a565b336000908152600260205260408120549003610b5157600380546001810182556000919091527fc2575a0e9e593c00f959f8c92f12db2869c3395a3b0502d05e2516446f71f85b0180546001600160a01b031916331790555b3360009081526002602052604081208054839290610b709084906125b3565b909155505050565b336000908152600560205260409020548110610ba65760405162461bcd60e51b81526004016102b690612330565b336000908152600560205260408120805483908110610bc757610bc761235c565b90600052602060002090600802016000018054610be390612372565b905011610c2a5760405162461bcd60e51b81526020600482015260156024820152742a30b9b5903737ba1039b2ba103337b9103ab9b2b960591b60448201526064016102b6565b600480546040516323b872dd60e01b81523392810192909252306024830152604482018490526001600160a01b0316906323b872dd906064016020604051808303816000875af1158015610c82573d6000803e3d6000fd5b505050506040513d601f19601f82011682018060405250810190610ca69190612568565b610cc25760405162461bcd60e51b81526004016102b69061258a565b336000908152600560205260409020805483919083908110610ce657610ce661235c565b90600052602060002090600802016004016000828254610d0691906125b3565b90915550505050565b336000908152600560205260409020805482908110610d3057610d3061235c565b9060005260206000209060080201600701544211610d905760405162461bcd60e51b815260206004820152601b60248201527f446561646c696e6520686173206e6f742070617373656420796574000000000060448201526064016102b6565b336000908152600560205260409020805482908110610db157610db161235c565b600091825260209091206005600890920201015460ff1615610e095760405162461bcd60e51b815260206004820152601160248201527015185cdac81dd85cc81858da1a595d9959607a1b60448201526064016102b6565b336000908152600560205260408120805483908110610e2a57610e2a61235c565b60009182526020822060046008909202010154600354909250610e4d90836125c6565b905060005b600354811015610f2957600060038281548110610e7157610e7161235c565b6000918252602090912001546004805460405163a9059cbb60e01b81526001600160a01b0393841692810183905260248101879052919350919091169063a9059cbb906044016020604051808303816000875af1158015610ed6573d6000803e3d6000fd5b505050506040513d601f19601f82011682018060405250810190610efa9190612568565b610f165760405162461bcd60e51b81526004016102b69061258a565b5080610f21816125e8565b915050610e52565b5033600090815260056020526040902080546001919085908110610f4f57610f4f61235c565b60009182526020808320600560089093020182018054941515620100000262ff0000199095169490941790935533825290915260408120805485908110610f9857610f9861235c565b906000526020600020906008020160040181905550505050565b600480546040516370a0823160e01b8152339281019290925283916001600160a01b03909116906370a0823190602401602060405180830381865afa158015610fff573d6000803e3d6000fd5b505050506040513d601f19601f8201168201806040525081019061102391906124e5565b10156110685760405162461bcd60e51b8152602060048201526014602482015273496e73756666696369656e742062616c616e636560601b60448201526064016102b6565b600480546040516323b872dd60e01b81523392810192909252306024830152604482018490526001600160a01b0316906323b872dd906064016020604051808303816000875af11580156110c0573d6000803e3d6000fd5b505050506040513d601f19601f820116820180604052508101906110e49190612568565b5060006110f182426125b3565b33600090815260056020908152604091829020825161014081019093528b8352929350810189600381111561112857611128611fea565b815260200188888080601f01602080910402602001604051908101604052809392919081815260200183838082843760009201829052509385525050506001600160a01b0388166020808401919091526040808401899052606084018390526080840183905260a08401839052805180830190915282815260c084015260e090920185905283546001810185559381522081519192600802019081906111ce90826123fb565b50602082015160018083018054909160ff19909116908360038111156111f6576111f6611fea565b02179055506040820151600282019061120f90826123fb565b5060608201516003820180546001600160a01b0319166001600160a01b039092169190911790556080820151600482015560a082015160058201805460c085015160e086015161ffff1990921693151561ff0019169390931761010093151584021762ff000019166201000091151591909102179055820151600682019061129790826123fb565b5061012082015181600701555050336001600160a01b03167f76aca8c17a95f80102cb8ae3da5c597d33c46d1ed9718b8e934c544dfb5b7c9b898989898989886040516112ea9796959493929190612601565b60405180910390a25050505050505050565b6000815160411461134f5760405162461bcd60e51b815260206004820152601860248201527f696e76616c6964207369676e6174757265206c656e677468000000000000000060448201526064016102b6565b60208201516040830151606084015160001a601b81101561137857611375601b82612672565b90505b8060ff16601b148061138d57508060ff16601c145b6113d95760405162461bcd60e51b815260206004820152601960248201527f696e76616c6964207369676e61747572652076657273696f6e0000000000000060448201526064016102b6565b60408051600081526020810180835288905260ff831691810191909152606081018490526080810183905260019060a0016020604051602081039080840390855afa15801561142c573d6000803e3d6000fd5b5050506020604051035193505050505b92915050565b6001600160a01b0381166000908152600560209081526040808320805482518185028101850190935280835260609492939192909184015b828210156116ef5783829060005260206000209060080201604051806101400160405290816000820180546114ae90612372565b80601f01602080910402602001604051908101604052809291908181526020018280546114da90612372565b80156115275780601f106114fc57610100808354040283529160200191611527565b820191906000526020600020905b81548152906001019060200180831161150a57829003601f168201915b5050509183525050600182015460209091019060ff16600381111561154e5761154e611fea565b600381111561155f5761155f611fea565b815260200160028201805461157390612372565b80601f016020809104026020016040519081016040528092919081815260200182805461159f90612372565b80156115ec5780601f106115c1576101008083540402835291602001916115ec565b820191906000526020600020905b8154815290600101906020018083116115cf57829003601f168201915b505050918352505060038201546001600160a01b0316602082015260048201546040820152600582015460ff8082161515606084015261010082048116151560808401526201000090910416151560a082015260068201805460c09092019161165490612372565b80601f016020809104026020016040519081016040528092919081815260200182805461168090612372565b80156116cd5780601f106116a2576101008083540402835291602001916116cd565b820191906000526020600020905b8154815290600101906020018083116116b057829003601f168201915b505050505081526020016007820154815250508152602001906001019061147a565b505050509050919050565b6000806001600160a01b03831660009081526005602052604090208054859081106117275761172761235c565b600091825260209091206001600890920201015460ff16600381111561174f5761174f611fea565b036118f157336000908152600560205260408120805461185d91908690811061177a5761177a61235c565b9060005260206000209060080201600201611794906124fe565b6001600160a01b03851660009081526005602052604090208054879081106117be576117be61235c565b906000526020600020906008020160060180546117da90612372565b80601f016020809104026020016040519081016040528092919081815260200182805461180690612372565b80156118535780601f1061182857610100808354040283529160200191611853565b820191906000526020600020905b81548152906001019060200180831161183657829003601f168201915b50505050506112fc565b9050611895604051806040016040528060148152602001737265636f7665726420616464726573733a20257360601b81525082611de1565b6001600160a01b03831660009081526005602052604090208054859081106118bf576118bf61235c565b60009182526020909120600360089092020101546001600160a01b03908116908216036118eb57600191505b506119c5565b60016001600160a01b038316600090815260056020526040902080548590811061191d5761191d61235c565b600091825260209091206001600890920201015460ff16600381111561194557611945611fea565b036119c557600054600154604051638ea2f2ab60e01b81526001600160a01b0390921691638ea2f2ab9161197f9160040190815260200190565b6020604051808303816000875af115801561199e573d6000803e3d6000fd5b505050506040513d601f19601f820116820180604052508101906119c29190612568565b90505b6001600160a01b03821660009081526005602052604090208054829190859081106119f2576119f261235c565b906000526020600020906008020160050160016101000a81548160ff0219169083151502179055508015611ae4576004546001600160a01b0383811660009081526005602052604090208054919092169163a9059cbb9185919087908110611a5c57611a5c61235c565b9060005260206000209060080201600401546040518363ffffffff1660e01b8152600401611a9f9291906001600160a01b03929092168252602082015260400190565b6020604051808303816000875af1158015611abe573d6000803e3d6000fd5b505050506040513d601f19601f82011682018060405250810190611ae29190612568565b505b816001600160a01b03167f1960f0f0d035450fb1a83c2a8d8459ac8d44b6995dd7b80c7045d32ef996b0f38260405161060f911515815260200190565b336000908152600560205260409020548110611b4f5760405162461bcd60e51b81526004016102b690612330565b336000908152600560205260409020805483919083908110611b7357611b7361235c565b9060005260206000209060080201600401541015611bc85760405162461bcd60e51b8152602060048201526012602482015271496e73756666696369656e74207374616b6560701b60448201526064016102b6565b336000908152600560205260409020805482908110611be957611be961235c565b906000526020600020906008020160050160029054906101000a900460ff1615611c615760405162461bcd60e51b8152602060048201526024808201527f43616e6e6f742077697468647261772066726f6d206120676976656e207570206044820152637461736b60e01b60648201526084016102b6565b6004805460405163a9059cbb60e01b81523392810192909252602482018490526001600160a01b03169063a9059cbb906044016020604051808303816000875af1158015611cb3573d6000803e3d6000fd5b505050506040513d601f19601f82011682018060405250810190611cd79190612568565b611cf35760405162461bcd60e51b81526004016102b69061258a565b336000908152600560205260409020805482908110611d1457611d1461235c565b906000526020600020906008020160050160019054906101000a900460ff16611d735760405162461bcd60e51b815260206004820152601160248201527015185cdac81b9bdd081d995c9a599a5959607a1b60448201526064016102b6565b336000908152600560205260409020805483919083908110611d9757611d9761235c565b90600052602060002090600802016004016000828254610d069190612555565b60038181548110611dc757600080fd5b6000918252602090912001546001600160a01b0316905081565b611e268282604051602401611df79291906124bb565b60408051601f198184030181529190526020810180516001600160e01b031663319af33360e01b179052611e2a565b5050565b80516a636f6e736f6c652e6c6f67602083016000808483855afa5050505050565b634e487b7160e01b600052604160045260246000fd5b600067ffffffffffffffff80841115611e7c57611e7c611e4b565b604051601f8501601f19908116603f01168101908282118183101715611ea457611ea4611e4b565b81604052809350858152868686011115611ebd57600080fd5b858560208301376000602087830101525050509392505050565b600082601f830112611ee857600080fd5b611ef783833560208501611e61565b9392505050565b60008060408385031215611f1157600080fd5b82359150602083013567ffffffffffffffff811115611f2f57600080fd5b611f3b85828601611ed7565b9150509250929050565b600060208284031215611f5757600080fd5b5035919050565b80356001600160a01b0381168114611f7557600080fd5b919050565b60008060408385031215611f8d57600080fd5b611f9683611f5e565b946020939093013593505050565b6000815180845260005b81811015611fca57602081850181015186830182015201611fae565b506000602082860101526020601f19601f83011685010191505092915050565b634e487b7160e01b600052602160045260246000fd5b6004811061201e57634e487b7160e01b600052602160045260246000fd5b9052565b60006101408083526120368184018e611fa4565b9050612045602084018d612000565b8281036040840152612057818c611fa4565b6001600160a01b038b166060850152608084018a905288151560a085015287151560c085015286151560e0850152838103610100850152905061209a8186611fa4565b915050826101208301529b9a5050505050505050505050565b600080604083850312156120c657600080fd5b50508035926020909101359150565b60008083601f8401126120e757600080fd5b50813567ffffffffffffffff8111156120ff57600080fd5b60208301915083602082850101111561211757600080fd5b9250929050565b600080600080600080600060c0888a03121561213957600080fd5b873567ffffffffffffffff8082111561215157600080fd5b818a0191508a601f83011261216557600080fd5b6121748b833560208501611e61565b985060208a013591506004821061218a57600080fd5b909650604089013590808211156121a057600080fd5b506121ad8a828b016120d5565b90965094506121c0905060608901611f5e565b92506080880135915060a0880135905092959891949750929550565b6000602082840312156121ee57600080fd5b611ef782611f5e565b60006020808301818452808551808352604092508286019150828160051b87010184880160005b838110156122f657603f198984030185528151610140815181865261224582870182611fa4565b915050888201516122588a870182612000565b50878201518582038987015261226e8282611fa4565b91505060608083015161228b828801826001600160a01b03169052565b50506080828101519086015260a08083015115159086015260c08083015115159086015260e08083015115159086015261010080830151868303828801526122d38382611fa4565b61012094850151979094019690965250509487019492509086019060010161221e565b509098975050505050505050565b6000806040838503121561231757600080fd5b8235915061232760208401611f5e565b90509250929050565b602080825260129082015271092dcecc2d8d2c840e8c2e6d640d2dcc8caf60731b604082015260600190565b634e487b7160e01b600052603260045260246000fd5b600181811c9082168061238657607f821691505b6020821081036123a657634e487b7160e01b600052602260045260246000fd5b50919050565b601f8211156123f657600081815260208120601f850160051c810160208610156123d35750805b601f850160051c820191505b818110156123f2578281556001016123df565b5050505b505050565b815167ffffffffffffffff81111561241557612415611e4b565b612429816124238454612372565b846123ac565b602080601f83116001811461245e57600084156124465750858301515b600019600386901b1c1916600185901b1785556123f2565b600085815260208120601f198616915b8281101561248d5788860151825594840194600190910190840161246e565b50858210156124ab5787850151600019600388901b60f8161c191681555b5050505050600190811b01905550565b6040815260006124ce6040830185611fa4565b905060018060a01b03831660208301529392505050565b6000602082840312156124f757600080fd5b5051919050565b600061250a8254612372565b82601f8211156125205783600052602060002090505b54915060208110156123a65760001960209190910360031b1b16919050565b634e487b7160e01b600052601160045260246000fd5b8181038181111561143c5761143c61253f565b60006020828403121561257a57600080fd5b81518015158114611ef757600080fd5b6020808252600f908201526e151c985b9cd9995c8819985a5b1959608a1b604082015260600190565b8082018082111561143c5761143c61253f565b6000826125e357634e487b7160e01b600052601260045260246000fd5b500490565b6000600182016125fa576125fa61253f565b5060010190565b60c08152600061261460c083018a611fa4565b612621602084018a612000565b828103604084015286815286886020830137600060208883018101919091526001600160a01b0396909616606084015260808301949094525060a00152601f909201601f1916909101019392505050565b60ff818116838216019081111561143c5761143c61253f56fea264697066735822122019111cbaa9ad297deb9ad7c37b99f953acbc802644415733d7c6ee1acb84d54664736f6c63430008100033",
  "devdoc": {
    "kind": "dev",
    "methods": {},
    "version": 1
  },
  "userdoc": {
    "kind": "user",
    "methods": {},
    "version": 1
  },
  "storageLayout": {
    "storage": [
      {
        "astId": 1680,
        "contract": "contracts/PowDoneGoal.sol:PowDoneGoal",
        "label": "oov3",
        "offset": 0,
        "slot": "0",
        "type": "t_contract(OptimisticOracleV3Interface)1668"
      },
      {
        "astId": 1682,
        "contract": "contracts/PowDoneGoal.sol:PowDoneGoal",
        "label": "assertionId",
        "offset": 0,
        "slot": "1",
        "type": "t_bytes32"
      },
      {
        "astId": 1686,
        "contract": "contracts/PowDoneGoal.sol:PowDoneGoal",
        "label": "stakersBalances",
        "offset": 0,
        "slot": "2",
        "type": "t_mapping(t_address,t_uint256)"
      },
      {
        "astId": 1689,
        "contract": "contracts/PowDoneGoal.sol:PowDoneGoal",
        "label": "stakers",
        "offset": 0,
        "slot": "3",
        "type": "t_array(t_address)dyn_storage"
      },
      {
        "astId": 1719,
        "contract": "contracts/PowDoneGoal.sol:PowDoneGoal",
        "label": "token",
        "offset": 0,
        "slot": "4",
        "type": "t_contract(IERC20)77"
      },
      {
        "astId": 1725,
        "contract": "contracts/PowDoneGoal.sol:PowDoneGoal",
        "label": "tasks",
        "offset": 0,
        "slot": "5",
        "type": "t_mapping(t_address,t_array(t_struct(Task)1716_storage)dyn_storage)"
      }
    ],
    "types": {
      "t_address": {
        "encoding": "inplace",
        "label": "address",
        "numberOfBytes": "20"
      },
      "t_array(t_address)dyn_storage": {
        "base": "t_address",
        "encoding": "dynamic_array",
        "label": "address[]",
        "numberOfBytes": "32"
      },
      "t_array(t_struct(Task)1716_storage)dyn_storage": {
        "base": "t_struct(Task)1716_storage",
        "encoding": "dynamic_array",
        "label": "struct PowDoneGoal.Task[]",
        "numberOfBytes": "32"
      },
      "t_bool": {
        "encoding": "inplace",
        "label": "bool",
        "numberOfBytes": "1"
      },
      "t_bytes32": {
        "encoding": "inplace",
        "label": "bytes32",
        "numberOfBytes": "32"
      },
      "t_bytes_storage": {
        "encoding": "bytes",
        "label": "bytes",
        "numberOfBytes": "32"
      },
      "t_contract(IERC20)77": {
        "encoding": "inplace",
        "label": "contract IERC20",
        "numberOfBytes": "20"
      },
      "t_contract(OptimisticOracleV3Interface)1668": {
        "encoding": "inplace",
        "label": "contract OptimisticOracleV3Interface",
        "numberOfBytes": "20"
      },
      "t_enum(VerificationMethod)1694": {
        "encoding": "inplace",
        "label": "enum PowDoneGoal.VerificationMethod",
        "numberOfBytes": "1"
      },
      "t_mapping(t_address,t_array(t_struct(Task)1716_storage)dyn_storage)": {
        "encoding": "mapping",
        "key": "t_address",
        "label": "mapping(address => struct PowDoneGoal.Task[])",
        "numberOfBytes": "32",
        "value": "t_array(t_struct(Task)1716_storage)dyn_storage"
      },
      "t_mapping(t_address,t_uint256)": {
        "encoding": "mapping",
        "key": "t_address",
        "label": "mapping(address => uint256)",
        "numberOfBytes": "32",
        "value": "t_uint256"
      },
      "t_string_storage": {
        "encoding": "bytes",
        "label": "string",
        "numberOfBytes": "32"
      },
      "t_struct(Task)1716_storage": {
        "encoding": "inplace",
        "label": "struct PowDoneGoal.Task",
        "members": [
          {
            "astId": 1696,
            "contract": "contracts/PowDoneGoal.sol:PowDoneGoal",
            "label": "description",
            "offset": 0,
            "slot": "0",
            "type": "t_string_storage"
          },
          {
            "astId": 1699,
            "contract": "contracts/PowDoneGoal.sol:PowDoneGoal",
            "label": "verificationMethod",
            "offset": 0,
            "slot": "1",
            "type": "t_enum(VerificationMethod)1694"
          },
          {
            "astId": 1701,
            "contract": "contracts/PowDoneGoal.sol:PowDoneGoal",
            "label": "verificationMaterial",
            "offset": 0,
            "slot": "2",
            "type": "t_bytes_storage"
          },
          {
            "astId": 1703,
            "contract": "contracts/PowDoneGoal.sol:PowDoneGoal",
            "label": "verificationAddress",
            "offset": 0,
            "slot": "3",
            "type": "t_address"
          },
          {
            "astId": 1705,
            "contract": "contracts/PowDoneGoal.sol:PowDoneGoal",
            "label": "stake",
            "offset": 0,
            "slot": "4",
            "type": "t_uint256"
          },
          {
            "astId": 1707,
            "contract": "contracts/PowDoneGoal.sol:PowDoneGoal",
            "label": "achieved",
            "offset": 0,
            "slot": "5",
            "type": "t_bool"
          },
          {
            "astId": 1709,
            "contract": "contracts/PowDoneGoal.sol:PowDoneGoal",
            "label": "verified",
            "offset": 1,
            "slot": "5",
            "type": "t_bool"
          },
          {
            "astId": 1711,
            "contract": "contracts/PowDoneGoal.sol:PowDoneGoal",
            "label": "givenUp",
            "offset": 2,
            "slot": "5",
            "type": "t_bool"
          },
          {
            "astId": 1713,
            "contract": "contracts/PowDoneGoal.sol:PowDoneGoal",
            "label": "evidence",
            "offset": 0,
            "slot": "6",
            "type": "t_bytes_storage"
          },
          {
            "astId": 1715,
            "contract": "contracts/PowDoneGoal.sol:PowDoneGoal",
            "label": "deadline",
            "offset": 0,
            "slot": "7",
            "type": "t_uint256"
          }
        ],
        "numberOfBytes": "256"
      },
      "t_uint256": {
        "encoding": "inplace",
        "label": "uint256",
        "numberOfBytes": "32"
      }
    }
  }
}