{
  "address": "0x5FbDB2315678afecb367f032d93F642f64180aa3",
  "abi": [
    {
      "inputs": [
        {
          "internalType": "address[]",
          "name": "_permittedDistributors",
          "type": "address[]"
        }
      ],
      "stateMutability": "nonpayable",
      "type": "constructor"
    },
    {
      "anonymous": false,
      "inputs": [
        {
          "indexed": true,
          "internalType": "address",
          "name": "owner",
          "type": "address"
        },
        {
          "indexed": true,
          "internalType": "address",
          "name": "spender",
          "type": "address"
        },
        {
          "indexed": false,
          "internalType": "uint256",
          "name": "value",
          "type": "uint256"
        }
      ],
      "name": "Approval",
      "type": "event"
    },
    {
      "anonymous": false,
      "inputs": [
        {
          "indexed": true,
          "internalType": "address",
          "name": "from",
          "type": "address"
        },
        {
          "indexed": true,
          "internalType": "address",
          "name": "to",
          "type": "address"
        },
        {
          "indexed": false,
          "internalType": "uint256",
          "name": "value",
          "type": "uint256"
        }
      ],
      "name": "Transfer",
      "type": "event"
    },
    {
      "inputs": [
        {
          "internalType": "address[]",
          "name": "recipients",
          "type": "address[]"
        },
        {
          "internalType": "uint256[]",
          "name": "amounts",
          "type": "uint256[]"
        }
      ],
      "name": "airdrop",
      "outputs": [],
      "stateMutability": "nonpayable",
      "type": "function"
    },
    {
      "inputs": [
        {
          "internalType": "address",
          "name": "owner",
          "type": "address"
        },
        {
          "internalType": "address",
          "name": "spender",
          "type": "address"
        }
      ],
      "name": "allowance",
      "outputs": [
        {
          "internalType": "uint256",
          "name": "",
          "type": "uint256"
        }
      ],
      "stateMutability": "view",
      "type": "function"
    },
    {
      "inputs": [
        {
          "internalType": "address",
          "name": "spender",
          "type": "address"
        },
        {
          "internalType": "uint256",
          "name": "amount",
          "type": "uint256"
        }
      ],
      "name": "approve",
      "outputs": [
        {
          "internalType": "bool",
          "name": "",
          "type": "bool"
        }
      ],
      "stateMutability": "nonpayable",
      "type": "function"
    },
    {
      "inputs": [
        {
          "internalType": "address",
          "name": "account",
          "type": "address"
        }
      ],
      "name": "balanceOf",
      "outputs": [
        {
          "internalType": "uint256",
          "name": "",
          "type": "uint256"
        }
      ],
      "stateMutability": "view",
      "type": "function"
    },
    {
      "inputs": [],
      "name": "decimals",
      "outputs": [
        {
          "internalType": "uint8",
          "name": "",
          "type": "uint8"
        }
      ],
      "stateMutability": "view",
      "type": "function"
    },
    {
      "inputs": [
        {
          "internalType": "address",
          "name": "spender",
          "type": "address"
        },
        {
          "internalType": "uint256",
          "name": "subtractedValue",
          "type": "uint256"
        }
      ],
      "name": "decreaseAllowance",
      "outputs": [
        {
          "internalType": "bool",
          "name": "",
          "type": "bool"
        }
      ],
      "stateMutability": "nonpayable",
      "type": "function"
    },
    {
      "inputs": [
        {
          "internalType": "address",
          "name": "spender",
          "type": "address"
        },
        {
          "internalType": "uint256",
          "name": "addedValue",
          "type": "uint256"
        }
      ],
      "name": "increaseAllowance",
      "outputs": [
        {
          "internalType": "bool",
          "name": "",
          "type": "bool"
        }
      ],
      "stateMutability": "nonpayable",
      "type": "function"
    },
    {
      "inputs": [
        {
          "internalType": "address",
          "name": "_distributors",
          "type": "address"
        }
      ],
      "name": "isPermittedDistributors",
      "outputs": [
        {
          "internalType": "bool",
          "name": "",
          "type": "bool"
        }
      ],
      "stateMutability": "view",
      "type": "function"
    },
    {
      "inputs": [],
      "name": "name",
      "outputs": [
        {
          "internalType": "string",
          "name": "",
          "type": "string"
        }
      ],
      "stateMutability": "view",
      "type": "function"
    },
    {
      "inputs": [],
      "name": "owner",
      "outputs": [
        {
          "internalType": "address",
          "name": "",
          "type": "address"
        }
      ],
      "stateMutability": "view",
      "type": "function"
    },
    {
      "inputs": [
        {
          "internalType": "uint256",
          "name": "",
          "type": "uint256"
        }
      ],
      "name": "permittedDistributors",
      "outputs": [
        {
          "internalType": "address",
          "name": "",
          "type": "address"
        }
      ],
      "stateMutability": "view",
      "type": "function"
    },
    {
      "inputs": [],
      "name": "symbol",
      "outputs": [
        {
          "internalType": "string",
          "name": "",
          "type": "string"
        }
      ],
      "stateMutability": "view",
      "type": "function"
    },
    {
      "inputs": [],
      "name": "totalSupply",
      "outputs": [
        {
          "internalType": "uint256",
          "name": "",
          "type": "uint256"
        }
      ],
      "stateMutability": "view",
      "type": "function"
    },
    {
      "inputs": [
        {
          "internalType": "address",
          "name": "to",
          "type": "address"
        },
        {
          "internalType": "uint256",
          "name": "amount",
          "type": "uint256"
        }
      ],
      "name": "transfer",
      "outputs": [
        {
          "internalType": "bool",
          "name": "",
          "type": "bool"
        }
      ],
      "stateMutability": "nonpayable",
      "type": "function"
    },
    {
      "inputs": [
        {
          "internalType": "address",
          "name": "from",
          "type": "address"
        },
        {
          "internalType": "address",
          "name": "to",
          "type": "address"
        },
        {
          "internalType": "uint256",
          "name": "amount",
          "type": "uint256"
        }
      ],
      "name": "transferFrom",
      "outputs": [
        {
          "internalType": "bool",
          "name": "",
          "type": "bool"
        }
      ],
      "stateMutability": "nonpayable",
      "type": "function"
    }
  ],
  "transactionHash": "0x1c6d98732926ab77e3682e4f7935e433ce99d8da560e97b138c048134f0633bd",
  "args": [
    [
      "0xC03d0Bccf7aDe9Ef0A5158A299d5aA21c20e2C9a",
      "0xCc4d28dD63Bb58540EeBDD713073Ad1Da1aFd18D"
    ]
  ],
  "numDeployments": 1,
  "solcInputHash": "a17dbd35b2eadac25e4003a52be9dacf",
  "bytecode": "0x60806040523480156200001157600080fd5b506040516200164e3803806200164e833981016040819052620000349162000305565b6040518060400160405280601281526020017150726f6f66206f6620576f726b20446f6e6560701b815250604051806040016040528060048152602001631413d5d160e21b81525081600390816200008d919062000465565b5060046200009c828262000465565b5050506000620000b16200018160201b60201c565b620000c19060ff16600a62000646565b620000d0906210f4476200065b565b9050620000de338262000186565b600580546001600160a01b0319163317905581516200010590600690602085019062000251565b506000620001166012600a62000646565b62000125906201e2406200065b565b905060005b83518110156200017757620001628482815181106200014d576200014d6200067d565b6020026020010151836200018660201b60201c565b806200016e8162000693565b9150506200012a565b50505050620006c5565b601290565b6001600160a01b038216620001e15760405162461bcd60e51b815260206004820152601f60248201527f45524332303a206d696e7420746f20746865207a65726f206164647265737300604482015260640160405180910390fd5b8060026000828254620001f59190620006af565b90915550506001600160a01b038216600081815260208181526040808320805486019055518481527fddf252ad1be2c89b69c2b068fc378daa952ba7f163c4a11628f55a4df523b3ef910160405180910390a35050565b505050565b828054828255906000526020600020908101928215620002a9579160200282015b82811115620002a957825182546001600160a01b0319166001600160a01b0390911617825560209092019160019091019062000272565b50620002b7929150620002bb565b5090565b5b80821115620002b75760008155600101620002bc565b634e487b7160e01b600052604160045260246000fd5b80516001600160a01b03811681146200030057600080fd5b919050565b600060208083850312156200031957600080fd5b82516001600160401b03808211156200033157600080fd5b818501915085601f8301126200034657600080fd5b8151818111156200035b576200035b620002d2565b8060051b604051601f19603f83011681018181108582111715620003835762000383620002d2565b604052918252848201925083810185019188831115620003a257600080fd5b938501935b82851015620003cb57620003bb85620002e8565b84529385019392850192620003a7565b98975050505050505050565b600181811c90821680620003ec57607f821691505b6020821081036200040d57634e487b7160e01b600052602260045260246000fd5b50919050565b601f8211156200024c57600081815260208120601f850160051c810160208610156200043c5750805b601f850160051c820191505b818110156200045d5782815560010162000448565b505050505050565b81516001600160401b03811115620004815762000481620002d2565b6200049981620004928454620003d7565b8462000413565b602080601f831160018114620004d15760008415620004b85750858301515b600019600386901b1c1916600185901b1785556200045d565b600085815260208120601f198616915b828110156200050257888601518255948401946001909101908401620004e1565b5085821015620005215787850151600019600388901b60f8161c191681555b5050505050600190811b01905550565b634e487b7160e01b600052601160045260246000fd5b600181815b80851115620005885781600019048211156200056c576200056c62000531565b808516156200057a57918102915b93841c93908002906200054c565b509250929050565b600082620005a15750600162000640565b81620005b05750600062000640565b8160018114620005c95760028114620005d457620005f4565b600191505062000640565b60ff841115620005e857620005e862000531565b50506001821b62000640565b5060208310610133831016604e8410600b841016171562000619575081810a62000640565b62000625838362000547565b80600019048211156200063c576200063c62000531565b0290505b92915050565b600062000654838362000590565b9392505050565b600081600019048311821515161562000678576200067862000531565b500290565b634e487b7160e01b600052603260045260246000fd5b600060018201620006a857620006a862000531565b5060010190565b8082018082111562000640576200064062000531565b610f7980620006d56000396000f3fe608060405234801561001057600080fd5b50600436106100f55760003560e01c806365897a621161009757806395d89b411161006657806395d89b4114610211578063a457c2d714610219578063a9059cbb1461022c578063dd62ed3e1461023f57600080fd5b806365897a62146101ad57806367243482146101c057806370a08231146101d55780638da5cb5b146101fe57600080fd5b806323b872dd116100d357806323b872dd1461014d578063313ce56714610160578063395093511461016f5780633be3ccc11461018257600080fd5b806306fdde03146100fa578063095ea7b31461011857806318160ddd1461013b575b600080fd5b610102610252565b60405161010f9190610bcc565b60405180910390f35b61012b610126366004610c02565b6102e4565b604051901515815260200161010f565b6002545b60405190815260200161010f565b61012b61015b366004610c2c565b6102fe565b6040516012815260200161010f565b61012b61017d366004610c02565b610322565b610195610190366004610c68565b610344565b6040516001600160a01b03909116815260200161010f565b61012b6101bb366004610c81565b61036e565b6101d36101ce366004610d72565b6103d7565b005b61013f6101e3366004610c81565b6001600160a01b031660009081526020819052604090205490565b600554610195906001600160a01b031681565b6101026106d6565b61012b610227366004610c02565b6106e5565b61012b61023a366004610c02565b610760565b61013f61024d366004610e32565b61076e565b60606003805461026190610e65565b80601f016020809104026020016040519081016040528092919081815260200182805461028d90610e65565b80156102da5780601f106102af576101008083540402835291602001916102da565b820191906000526020600020905b8154815290600101906020018083116102bd57829003601f168201915b5050505050905090565b6000336102f2818585610799565b60019150505b92915050565b60003361030c8582856108bd565b610317858585610937565b506001949350505050565b6000336102f2818585610335838361076e565b61033f9190610eb5565b610799565b6006818154811061035457600080fd5b6000918252602090912001546001600160a01b0316905081565b6000805b6006548110156103ce57826001600160a01b03166006828154811061039957610399610ec8565b6000918252602090912001546001600160a01b0316036103bc5750600192915050565b806103c681610ede565b915050610372565b50600092915050565b6005546001600160a01b03163314806103f457506103f43361036e565b61045e5760405162461bcd60e51b815260206004820152603060248201527f4f6e6c79206f776e6572206f72207065726d697474656420646973747269627560448201526f0746f72732063616e2061697264726f760841b60648201526084015b60405180910390fd5b80518251146104d55760405162461bcd60e51b815260206004820152603760248201527f526563697069656e747320616e6420616d6f756e747320617272617973206d7560448201527f73742068617665207468652073616d65206c656e6774680000000000000000006064820152608401610455565b6040805180820190915260138152724f776e6572206164647265737320697320257360681b602082015260055461051591906001600160a01b0316610adb565b61054b6040518060400160405280601481526020017353656e646572206164647265737320697320257360601b81525033610adb565b6040805180820190915260138152724f776e65722062616c616e636520697320257360681b60208201526005546105aa91906105a5906001600160a01b03166001600160a01b031660009081526020819052604090205490565b610b24565b60005b82518110156106d15760008382815181106105ca576105ca610ec8565b6020026020010151905060008383815181106105e8576105e8610ec8565b6020908102919091018101516005546001600160a01b03166000908152918290526040909120549091508111156106615760405162461bcd60e51b815260206004820152601c60248201527f4e6f7420656e6f75676820746f6b656e7320746f2061697264726f70000000006044820152606401610455565b600554610678906001600160a01b03168383610937565b6005546040518281526001600160a01b038481169216907fddf252ad1be2c89b69c2b068fc378daa952ba7f163c4a11628f55a4df523b3ef9060200160405180910390a3505080806106c990610ede565b9150506105ad565b505050565b60606004805461026190610e65565b600033816106f3828661076e565b9050838110156107535760405162461bcd60e51b815260206004820152602560248201527f45524332303a2064656372656173656420616c6c6f77616e63652062656c6f77604482015264207a65726f60d81b6064820152608401610455565b6103178286868403610799565b6000336102f2818585610937565b6001600160a01b03918216600090815260016020908152604080832093909416825291909152205490565b6001600160a01b0383166107fb5760405162461bcd60e51b8152602060048201526024808201527f45524332303a20617070726f76652066726f6d20746865207a65726f206164646044820152637265737360e01b6064820152608401610455565b6001600160a01b03821661085c5760405162461bcd60e51b815260206004820152602260248201527f45524332303a20617070726f766520746f20746865207a65726f206164647265604482015261737360f01b6064820152608401610455565b6001600160a01b0383811660008181526001602090815260408083209487168084529482529182902085905590518481527f8c5be1e5ebec7d5bd14f71427d1e84f3dd0314c0f7b2291e5b200ac8c7c3b925910160405180910390a3505050565b60006108c9848461076e565b9050600019811461093157818110156109245760405162461bcd60e51b815260206004820152601d60248201527f45524332303a20696e73756666696369656e7420616c6c6f77616e63650000006044820152606401610455565b6109318484848403610799565b50505050565b6001600160a01b03831661099b5760405162461bcd60e51b815260206004820152602560248201527f45524332303a207472616e736665722066726f6d20746865207a65726f206164604482015264647265737360d81b6064820152608401610455565b6001600160a01b0382166109fd5760405162461bcd60e51b815260206004820152602360248201527f45524332303a207472616e7366657220746f20746865207a65726f206164647260448201526265737360e81b6064820152608401610455565b6001600160a01b03831660009081526020819052604090205481811015610a755760405162461bcd60e51b815260206004820152602660248201527f45524332303a207472616e7366657220616d6f756e7420657863656564732062604482015265616c616e636560d01b6064820152608401610455565b6001600160a01b03848116600081815260208181526040808320878703905593871680835291849020805487019055925185815290927fddf252ad1be2c89b69c2b068fc378daa952ba7f163c4a11628f55a4df523b3ef910160405180910390a3610931565b610b208282604051602401610af1929190610ef7565b60408051601f198184030181529190526020810180516001600160e01b031663319af33360e01b179052610b65565b5050565b610b208282604051602401610b3a929190610f21565b60408051601f198184030181529190526020810180516001600160e01b0316632d839cb360e21b1790525b80516a636f6e736f6c652e6c6f67602083016000808483855afa5050505050565b6000815180845260005b81811015610bac57602081850181015186830182015201610b90565b506000602082860101526020601f19601f83011685010191505092915050565b602081526000610bdf6020830184610b86565b9392505050565b80356001600160a01b0381168114610bfd57600080fd5b919050565b60008060408385031215610c1557600080fd5b610c1e83610be6565b946020939093013593505050565b600080600060608486031215610c4157600080fd5b610c4a84610be6565b9250610c5860208501610be6565b9150604084013590509250925092565b600060208284031215610c7a57600080fd5b5035919050565b600060208284031215610c9357600080fd5b610bdf82610be6565b634e487b7160e01b600052604160045260246000fd5b604051601f8201601f1916810167ffffffffffffffff81118282101715610cdb57610cdb610c9c565b604052919050565b600067ffffffffffffffff821115610cfd57610cfd610c9c565b5060051b60200190565b600082601f830112610d1857600080fd5b81356020610d2d610d2883610ce3565b610cb2565b82815260059290921b84018101918181019086841115610d4c57600080fd5b8286015b84811015610d675780358352918301918301610d50565b509695505050505050565b60008060408385031215610d8557600080fd5b823567ffffffffffffffff80821115610d9d57600080fd5b818501915085601f830112610db157600080fd5b81356020610dc1610d2883610ce3565b82815260059290921b84018101918181019089841115610de057600080fd5b948201945b83861015610e0557610df686610be6565b82529482019490820190610de5565b96505086013592505080821115610e1b57600080fd5b50610e2885828601610d07565b9150509250929050565b60008060408385031215610e4557600080fd5b610e4e83610be6565b9150610e5c60208401610be6565b90509250929050565b600181811c90821680610e7957607f821691505b602082108103610e9957634e487b7160e01b600052602260045260246000fd5b50919050565b634e487b7160e01b600052601160045260246000fd5b808201808211156102f8576102f8610e9f565b634e487b7160e01b600052603260045260246000fd5b600060018201610ef057610ef0610e9f565b5060010190565b604081526000610f0a6040830185610b86565b905060018060a01b03831660208301529392505050565b604081526000610f346040830185610b86565b9050826020830152939250505056fea2646970667358221220d54d4f28e2fb69b3351ad50943fc43a6f27593c696f3753fc356dad275f1a58e64736f6c63430008100033",
  "devdoc": {
    "kind": "dev",
    "methods": {
      "allowance(address,address)": {
        "details": "See {IERC20-allowance}."
      },
      "approve(address,uint256)": {
        "details": "See {IERC20-approve}. NOTE: If `amount` is the maximum `uint256`, the allowance is not updated on `transferFrom`. This is semantically equivalent to an infinite approval. Requirements: - `spender` cannot be the zero address."
      },
      "balanceOf(address)": {
        "details": "See {IERC20-balanceOf}."
      },
      "decimals()": {
        "details": "Returns the number of decimals used to get its user representation. For example, if `decimals` equals `2`, a balance of `505` tokens should be displayed to a user as `5.05` (`505 / 10 ** 2`). Tokens usually opt for a value of 18, imitating the relationship between Ether and Wei. This is the value {ERC20} uses, unless this function is overridden; NOTE: This information is only used for _display_ purposes: it in no way affects any of the arithmetic of the contract, including {IERC20-balanceOf} and {IERC20-transfer}."
      },
      "decreaseAllowance(address,uint256)": {
        "details": "Atomically decreases the allowance granted to `spender` by the caller. This is an alternative to {approve} that can be used as a mitigation for problems described in {IERC20-approve}. Emits an {Approval} event indicating the updated allowance. Requirements: - `spender` cannot be the zero address. - `spender` must have allowance for the caller of at least `subtractedValue`."
      },
      "increaseAllowance(address,uint256)": {
        "details": "Atomically increases the allowance granted to `spender` by the caller. This is an alternative to {approve} that can be used as a mitigation for problems described in {IERC20-approve}. Emits an {Approval} event indicating the updated allowance. Requirements: - `spender` cannot be the zero address."
      },
      "name()": {
        "details": "Returns the name of the token."
      },
      "symbol()": {
        "details": "Returns the symbol of the token, usually a shorter version of the name."
      },
      "totalSupply()": {
        "details": "See {IERC20-totalSupply}."
      },
      "transfer(address,uint256)": {
        "details": "See {IERC20-transfer}. Requirements: - `to` cannot be the zero address. - the caller must have a balance of at least `amount`."
      },
      "transferFrom(address,address,uint256)": {
        "details": "See {IERC20-transferFrom}. Emits an {Approval} event indicating the updated allowance. This is not required by the EIP. See the note at the beginning of {ERC20}. NOTE: Does not update the allowance if the current allowance is the maximum `uint256`. Requirements: - `from` and `to` cannot be the zero address. - `from` must have a balance of at least `amount`. - the caller must have allowance for ``from``'s tokens of at least `amount`."
      }
    },
    "version": 1
  },
  "userdoc": {
    "kind": "user",
    "methods": {
      "constructor": {
        "notice": "Contract initialization."
      }
    },
    "version": 1
  },
  "storageLayout": {
    "storage": [
      {
        "astId": 15,
        "contract": "contracts/PowDoneToken.sol:PowDoneToken",
        "label": "_balances",
        "offset": 0,
        "slot": "0",
        "type": "t_mapping(t_address,t_uint256)"
      },
      {
        "astId": 21,
        "contract": "contracts/PowDoneToken.sol:PowDoneToken",
        "label": "_allowances",
        "offset": 0,
        "slot": "1",
        "type": "t_mapping(t_address,t_mapping(t_address,t_uint256))"
      },
      {
        "astId": 23,
        "contract": "contracts/PowDoneToken.sol:PowDoneToken",
        "label": "_totalSupply",
        "offset": 0,
        "slot": "2",
        "type": "t_uint256"
      },
      {
        "astId": 25,
        "contract": "contracts/PowDoneToken.sol:PowDoneToken",
        "label": "_name",
        "offset": 0,
        "slot": "3",
        "type": "t_string_storage"
      },
      {
        "astId": 27,
        "contract": "contracts/PowDoneToken.sol:PowDoneToken",
        "label": "_symbol",
        "offset": 0,
        "slot": "4",
        "type": "t_string_storage"
      },
      {
        "astId": 719,
        "contract": "contracts/PowDoneToken.sol:PowDoneToken",
        "label": "owner",
        "offset": 0,
        "slot": "5",
        "type": "t_address"
      },
      {
        "astId": 722,
        "contract": "contracts/PowDoneToken.sol:PowDoneToken",
        "label": "permittedDistributors",
        "offset": 0,
        "slot": "6",
        "type": "t_array(t_address)dyn_storage"
      }
    ],
    "types": {
      "t_address": {
        "encoding": "inplace",
        "label": "address",
        "numberOfBytes": "20"
      },
      "t_array(t_address)dyn_storage": {
        "base": "t_address",
        "encoding": "dynamic_array",
        "label": "address[]",
        "numberOfBytes": "32"
      },
      "t_mapping(t_address,t_mapping(t_address,t_uint256))": {
        "encoding": "mapping",
        "key": "t_address",
        "label": "mapping(address => mapping(address => uint256))",
        "numberOfBytes": "32",
        "value": "t_mapping(t_address,t_uint256)"
      },
      "t_mapping(t_address,t_uint256)": {
        "encoding": "mapping",
        "key": "t_address",
        "label": "mapping(address => uint256)",
        "numberOfBytes": "32",
        "value": "t_uint256"
      },
      "t_string_storage": {
        "encoding": "bytes",
        "label": "string",
        "numberOfBytes": "32"
      },
      "t_uint256": {
        "encoding": "inplace",
        "label": "uint256",
        "numberOfBytes": "32"
      }
    }
  }
}